:020000040000FA
:100000000C9462000C948A000C948A000C948A0070
:100010000C948A000C948A000C948A000C948A0038
:100020000C948A000C948A000C948A000C948A0028
:100030000C948A000C948A000C948A000C948A0018
:100040000C9402040C948A000C9472040C944C04DA
:100050000C948A000C948A000C948A000C948A00F8
:100060000C948A000C948A000000000024002700F1
:100070002A000000000023002600290000000000E4
:10008000250028002B0004040404040404040202D4
:100090000202020203030303030301020408102007
:1000A0004080010204081020010204081020000012
:1000B0000008000201000003040700000000000027
:1000C0000000BD0611241FBECFEFD8E0DEBFCDBFBC
:1000D00013E0A0E0B1E0E8E2FEE002C005900D927E
:1000E000A431B107D9F723E0A4E1B3E001C01D9228
:1000F000AA3CB207E1F710E0C2E6D0E004C02197C5
:10010000FE010E940C07C136D107C9F70E94A40462
:100110000C9412070C940000CF92DF92EF92FF92A2
:100120006B017C01E0913D03F0913E0382E080830E
:10013000C11481EED806E104F104A1F060E079E099
:100140008DE390E0A70196010E94EA062150310953
:10015000410951095695479537952795211580E115
:100160003807A8F0E0913D03F0913E03108260E86B
:1001700074E88EE190E0A70196010E94EA06215002
:100180003109410951095695479537952795E091D1
:100190003903F0913A033083E0913B03F0913C0343
:1001A000208310924503E0914103F091420386E0E1
:1001B0008083E0913F03F0914003808180618083E0
:1001C000E0913F03F0914003808188608083E0915B
:1001D0003F03F0914003808180688083E0913F037A
:1001E000F091400380818F7D8083FF90EF90DF90BE
:1001F000CF900895833081F028F4813099F08230D7
:10020000A9F008958730A9F08830C9F08430B1F49E
:10021000809180008F7D03C0809180008F778093D4
:100220008000089584B58F7784BD089584B58F7D4F
:10023000FBCF8091B0008F778093B00008958091BC
:10024000B0008F7DF9CF1F93CF93DF93EBEBF0E0FE
:100250009491E7EAF0E0D491E3E9F0E0C491CC2393
:10026000B9F0182F992319F0892F0E94FA00EC2F6A
:10027000F0E0EE0FFF1FE458FF4FA591B4918FB748
:10028000F894EC91111108C0D095DE23DC938FBF58
:10029000DF91CF911F910895DE2BF8CF3FB7F894EF
:1002A0008091290390912A03A0912B03B0912C03F4
:1002B00026B5A89B05C02F3F19F00196A11DB11DC1
:1002C0003FBFBA2FA92F982F8827BC01CD01620FFD
:1002D000711D811D911D42E0660F771F881F991FB8
:1002E0004A95D1F708958F929F92AF92BF92CF9285
:1002F000DF92EF92FF926B017C010E944E014B0155
:100300005C01C114D104E104F104B9F00E944E0172
:10031000681979098A099B09683E7340810591052E
:1003200080F321E0C21AD108E108F10888EE880EB6
:1003300083E0981EA11CB11CE4CFFF90EF90DF90EA
:10034000CF90BF90AF909F908F9008952FB7F89463
:1003500060912503709126038091270390912803D3
:100360002FBF0895AF92BF92CF92DF92EF92FF928C
:100370000F931F93CF93DF936C017B018B01040FCD
:10038000151FEB015E01AE18BF08C017D10759F069
:100390006991D601ED91FC910190F081E02DC601AB
:1003A0000995892B79F7C501DF91CF911F910F91A5
:1003B000FF90EF90DF90CF90BF90AF900895FC0139
:1003C000538D448D252F30E0842F90E0821B930BBA
:1003D000541710F0CF96089501970895FC01918D60
:1003E000828D981761F0A28DAE0FBF2FB11D5D9663
:1003F0008C91928D9F5F9F73928F90E008958FEF05
:100400009FEF0895FC01918D828D981731F0828DB8
:10041000E80FF11D858D90E008958FEF9FEF08950F
:10042000FC01918D228D892F90E0805C9F4F821B73
:1004300091098F73992708958DE293E00E9410022D
:1004400021E0892B09F420E0822F089580E090E0DC
:10045000892B29F00E941C0281110C940000089540
:10046000FC01A48DA80FB92FB11DA35ABF4F2C9129
:10047000848D90E001968F739927848FA689B78920
:100480002C93A089B1898C91837080648C93938D17
:10049000848D981306C00288F389E02D80818F7DBA
:1004A00080830895EF92FF920F931F93CF93DF9372
:1004B000EC0181E0888F9B8D8C8D98131AC0E889A0
:1004C000F989808185FF15C09FB7F894EE89FF896F
:1004D0006083E889F98980818370806480839FBF0D
:1004E00081E090E0DF91CF911F910F91FF90EF900D
:1004F0000895F62E0B8D10E00F5F1F4F0F7311271D
:10050000E02E8C8D8E110CC00FB607FCFACFE88957
:10051000F989808185FFF5CFCE010E943002F1CFAD
:10052000EB8DEC0FFD2FF11DE35AFF4FF0829FB7CB
:10053000F8940B8FEA89FB8980818062CFCFCF93BB
:10054000DF93EC01888D8823B9F0AA89BB89E889FB
:10055000F9898C9185FD03C0808186FD0DC00FB6A1
:1005600007FCF7CF8C9185FFF2CF808185FFEDCF1F
:10057000CE010E943002E9CFDF91CF9108958F9292
:100580009F92AF92BF92CF92DF92EF92FF92CF9362
:10059000DF93D82FC0E04B01B12CA12C6A01F12CC4
:1005A000E12C81E00E942301C501B4010E94730186
:1005B00080E00E942301C701B6010E947301CF5F52
:1005C000DC13EFCFDF91CF91FF90EF90DF90CF90D2
:1005D000BF90AF909F908F900895FC0101900020F4
:1005E000E9F73197AF01481B590BBC018DE293E04D
:1005F0000C94B20188E191E00C94ED028F929F92ED
:10060000AF92BF920F931F93CF93DF93CDB7DEB717
:10061000A1970FB6F894DEBF0FBECDBF19A242302E
:1006200008F44AE08E010F5D1F4F842E912CB12CEF
:10063000A12CA50194010E94EA06E62FB901CA0186
:10064000EA30F4F4E05DD801EE938D01232B242BE6
:10065000252B79F790E080E0109719F0CD010E94EA
:10066000ED02A1960FB6F894DEBF0FBECDBFDF91AD
:10067000CF911F910F91BF90AF909F908F90089551
:10068000E95CE1CFCF93DF930E94ED02EC010E9481
:10069000FA028C0F9D1FDF91CF910895CF92DF92C8
:1006A000EF92FF926B017C010E94FA028BE191E0D4
:1006B0000E9442038091000190910101A0910201EA
:1006C000B09103018C159D05AE05BF05F9F48CE3CF
:1006D00091E00E94ED026091000170910101809112
:1006E0000201909103014AE00E94FE028CEE92E02A
:1006F0000E94420389E491E00E9442038BE191E071
:10070000FF90EF90DF90CF900C94420383E691E04E
:100710000E94ED026091000170910101809102013F
:10072000909103014AE00E94FE0283E791E00E945B
:10073000ED024AE0C701B6010E94FE028AE791E09D
:100740000E9442038DE293E00E949F0264E670E003
:1007500080E090E00E9473018DE293E00E949F028E
:10076000E0913F03F091400380818F7E8083E09190
:100770003F03F09140038081877F8083E0913F03B6
:10078000F091400380818F778083E0913F03F09167
:10079000400380818F7D808380914703809346034F
:1007A000C0920001D0920101E0920201F092030197
:1007B000C701B6010E948C0064E670E080E090E022
:1007C0000E9473010E94FA0282E891E00E944203B3
:1007D00083EA91E00E9442038FEB92E00E94ED02D7
:1007E00060910001709101018091020190910301DB
:1007F0004AE00E94FE028CEE92E00E94420382E8F0
:1008000091E07ECF1F920F920FB60F9211242F937B
:100810003F938F939F93AF93BF93809125039091C4
:100820002603A0912703B09128033091240323E0ED
:10083000230F2D3758F50196A11DB11D20932403D8
:100840008093250390932603A0932703B093280356
:100850008091290390912A03A0912B03B0912C033E
:100860000196A11DB11D8093290390932A03A093A3
:100870002B03B0932C03BF91AF919F918F913F9128
:100880002F910F900FBE0F901F90189526E8230F01
:100890000296A11DB11DD2CF1F920F920FB60F92DB
:1008A00011242F933F934F935F936F937F938F9375
:1008B0009F93AF93BF93EF93FF938DE293E00E94DA
:1008C0003002FF91EF91BF91AF919F918F917F91F6
:1008D0006F915F914F913F912F910F900FBE0F90AD
:1008E0001F9018951F920F920FB60F9211242F93FD
:1008F0008F939F93EF93FF93E0913D03F0913E031D
:100900008081E0914303F091440382FD1BC09081FC
:10091000809146038F5F8F7320914703821741F0C8
:10092000E0914603F0E0E35DFC4F958F8093460332
:10093000FF91EF919F918F912F910F900FBE0F908C
:100940001F9018958081F4CF789484B5826084BD1F
:1009500084B5816084BD85B5826085BD85B58160C3
:1009600085BD80916E00816080936E001092810041
:1009700080918100826080938100809181008160FC
:1009800080938100809180008160809380008091BD
:10099000B10084608093B1008091B0008160809349
:1009A000B00080917A00846080937A0080917A0010
:1009B000826080937A0080917A00816080937A00CF
:1009C00080917A00806880937A001092C1000CE9CF
:1009D00010E0F801249168E8E62E60E0F62EF701B9
:1009E00084918823C1F090E0880F991FFC01E85999
:1009F000FF4FA591B491FC01E458FF4FC591D491EC
:100A00009FB7F8943C91822F809583238C938881A3
:100A1000282B28839FBFE7EAF0E02491E3E9F0E088
:100A20008491882399F090E0880F991FFC01E85980
:100A3000FF4FA591B491FC01E458FF4F859194912B
:100A40008FB7F894EC91E22BEC938FBF80E00E947B
:100A50002301609100017091010180910201909148
:100A600003010E948C006CE271E080E090E00E9443
:100A700073010E94FA0282E891E00E9442038EEB29
:100A800091E00E9442038CED91E00E94420382E8D3
:100A900091E00E94420388EE91E00E9442038BEFB6
:100AA00091E00E9442030E94FA0280E192E00E94DB
:100AB000420388E292E00E94420382E891E00E94B1
:100AC000420390EB692E90E0792E20E0A22E20E0E8
:100AD000B22E88248394912C55245394F30184914D
:100AE000F801C491F701D491DD2309F4B0C081115C
:100AF0000E94FA00ED2FF0E0EE0FFF1FEE58FF4FBF
:100B0000A591B4918C91C82391E080E009F490E024
:100B1000C92FD82FFC2FF1704F2E80910501F817A7
:100B200051F00E94A6016093190370931A038093F9
:100B30001B0390931C030E94A601C0902203D09037
:100B400023032091190330911A0340911B03509104
:100B50001C03621B730B840B950B683271058105B6
:100B60009105A8F080910401481689F04092040193
:100B7000CD2B09F06FC00E94A601609315037093FE
:100B80001603809317039093180310921403409256
:100B9000050180910401811145C0809114038111E8
:100BA00041C00E94A6012091150330911603409187
:100BB000170350911803621B730B840B950B683B52
:100BC0007B408105910570F150921403109221032E
:100BD000CD2809F058C090922303809222030E94EE
:100BE000FA0282E891E00E9442038EE392E00E94C2
:100BF000420382E891E00E94420380E592E00E9475
:100C0000420385E692E00E9442038CE792E00E9454
:100C100042030E94FA0240E550E060E570E085E0A2
:100C20000E94BF028091220390912303019709F44F
:100C300057C010922103A114B10409F44FCF0E94B0
:100C40001C02882309F44ACF0E94000047CFD0E05D
:100C5000C0E060CF80911403811199CF21E0C216CA
:100C6000D10409F094CF809121038F5F80932103F9
:100C70000E94A60160931D0370931E0380931F03BF
:100C80009093200384CF109223031092220380E0DC
:100C90000E9423010E94FA0282E891E00E9442032E
:100CA00085E992E00E94420386EA92E00E944203B4
:100CB00087EB92E00E94ED026091000170910101CA
:100CC00080910201909103014AE00E94FE028CEEA5
:100CD00092E00E94420382E891E00E944203A2CF88
:100CE000809121038230D0F0109221030E94FA02F9
:100CF0008CEC92E00E9442038EED92E00E9442034F
:100D000048EC50E06AEF70E082E00E94BF0260E0D1
:100D100072EC81E090E00E944E038DCF813009F0AB
:100D20008ACF0E94A60120911D0330911E0340919D
:100D30001F0350912003621B730B840B950B643FC0
:100D400071408105910508F476CF109221030E942D
:100D5000FA0281EF92E00E94420382E093E00E9457
:100D6000420348EC50E06AEF70E081E00E94BF026D
:100D700060E875E280E090E0CECFEDE2F3E0138230
:100D8000128288EE93E0A0E0B0E084839583A6838E
:100D9000B7838AE091E09183808385EC90E095872A
:100DA000848784EC90E09787868780EC90E0918B35
:100DB000808B81EC90E0938B828B82EC90E0958B22
:100DC000848B86EC90E0978B868B118E128E138E1F
:100DD000148E0895A1E21A2EAA1BBB1BFD010DC0A3
:100DE000AA1FBB1FEE1FFF1FA217B307E407F507DB
:100DF00020F0A21BB30BE40BF50B661F771F881FB7
:100E0000991F1A9469F760957095809590959B014C
:100E1000AC01BD01CF010895EE0FFF1F0590F491C5
:100E2000E02D0994F894FFCF802500000101000017
:100E300000005202B201DF019F021002EE01020225
:100E40000D0A002D2D2D2D2D2D2D2D2D2D2D2D2D42
:100E50002D2D2D2D2D2D2D2D2D2D2D2D2D2D2D2DC2
:100E60002D2D2D00554152542064616E67206F2056
:100E7000004361752068696E6820554152542074A2
:100E800068616E6820636F6E672E004368757965D0
:100E90006E205541525420747520002073616E6796
:100EA0002000206270732E2E2E003D3D3D3D3D3DC5
:100EB0003D3D3D3D3D3D3D3D3D3D3D3D3D3D3D3D62
:100EC0003D3D3D3D3D3D3D3D3D3D00554152542064
:100ED000434F4E46494755524154494F4E20535572
:100EE000434345535300554152542044594E414DBC
:100EF00049432042415544205241544520535953BF
:100F000054454D0041524455494E4F20554E4F00D7
:100F10004D4F44452020202020203A204E4F524D56
:100F2000414C00424155442052415445203A203919
:100F30003630302062707300486F6C642042555424
:100F4000544F4E203E2033207365636F6E647300F0
:100F5000746F20656E74657220434F4E464947207A
:100F60004D4F44452E00454E54455220434F4E466A
:100F70004947204D4F4445003120434C49434B20C5
:100F8000202D3E20393630302062707300322043ED
:100F90004C49434B53202D3E2031313532303020E7
:100FA00062707300486F6C64203E203373202D3EC6
:100FB000204558495420434F4E464947004558491B
:100FC0005420434F4E464947204D4F4445004E4F15
:100FD000524D414C204F5045524154494F4E0043D1
:100FE000555252454E542042415544205241544599
:100FF000203D20003220434C49434B53204445546C
:1010000045435445440053454C4543543A203131FF
:101010003532303020627073003120434C49434BED
:101020002044455445435445440053454C4543549E
:0C1030003A203936303020627073000026
:107E0000112484B714BE81FFF0D085E080938100F7
:107E100082E08093C00088E18093C10086E0809377
:107E2000C20080E18093C4008EE0C9D0259A86E02C
:107E300020E33CEF91E0309385002093840096BBD3
:107E4000B09BFECF1D9AA8958150A9F7CC24DD24C4
:107E500088248394B5E0AB2EA1E19A2EF3E0BF2EE7
:107E6000A2D0813461F49FD0082FAFD0023811F036
:107E7000013811F484E001C083E08DD089C08234E0
:107E800011F484E103C0853419F485E0A6D080C0E4
:107E9000853579F488D0E82EFF2485D0082F10E0AE
:107EA000102F00270E291F29000F111F8ED06801E7
:107EB0006FC0863521F484E090D080E0DECF843638
:107EC00009F040C070D06FD0082F6DD080E0C81688
:107ED00080E7D80618F4F601B7BEE895C0E0D1E017
:107EE00062D089930C17E1F7F0E0CF16F0E7DF06D8
:107EF00018F0F601B7BEE89568D007B600FCFDCFD4
:107F0000A601A0E0B1E02C9130E011968C91119780
:107F100090E0982F8827822B932B1296FA010C0160
:107F200087BEE89511244E5F5F4FF1E0A038BF0790
:107F300051F7F601A7BEE89507B600FCFDCF97BE46
:107F4000E89526C08437B1F42ED02DD0F82E2BD052
:107F50003CD0F601EF2C8F010F5F1F4F84911BD097
:107F6000EA94F801C1F70894C11CD11CFA94CF0C13
:107F7000D11C0EC0853739F428D08EE10CD085E9AC
:107F80000AD08FE07ACF813511F488E018D01DD067
:107F900080E101D065CF982F8091C00085FFFCCF94
:107FA0009093C60008958091C00087FFFCCF809118
:107FB000C00084FD01C0A8958091C6000895E0E648
:107FC000F0E098E1908380830895EDDF803219F02E
:107FD00088E0F5DFFFCF84E1DECF1F93182FE3DFCA
:107FE0001150E9F7F2DF1F91089580E0E8DFEE27F6
:047FF000FF270994CA
:027FFE00040479
:00000001FF
